{
  "contractName": "DeTrace",
  "abi": [
    {
      "inputs": [],
      "stateMutability": "nonpayable",
      "type": "constructor"
    },
    {
      "anonymous": false,
      "inputs": [
        {
          "indexed": false,
          "internalType": "string",
          "name": "_message",
          "type": "string"
        }
      ],
      "name": "DeTrace_deployed",
      "type": "event"
    },
    {
      "anonymous": false,
      "inputs": [
        {
          "indexed": false,
          "internalType": "uint256",
          "name": "_productId",
          "type": "uint256"
        },
        {
          "indexed": false,
          "internalType": "address",
          "name": "_manufacturerAddress",
          "type": "address"
        },
        {
          "indexed": false,
          "internalType": "uint256",
          "name": "_time",
          "type": "uint256"
        }
      ],
      "name": "Product_Added",
      "type": "event"
    },
    {
      "anonymous": false,
      "inputs": [
        {
          "indexed": false,
          "internalType": "uint256",
          "name": "_productId",
          "type": "uint256"
        },
        {
          "indexed": false,
          "internalType": "address",
          "name": "_manufacturerAddress",
          "type": "address"
        },
        {
          "indexed": false,
          "internalType": "address",
          "name": "_retailerAddress",
          "type": "address"
        },
        {
          "indexed": false,
          "internalType": "uint256",
          "name": "_time",
          "type": "uint256"
        }
      ],
      "name": "Product_Released",
      "type": "event"
    },
    {
      "anonymous": false,
      "inputs": [
        {
          "indexed": false,
          "internalType": "uint256",
          "name": "_productId",
          "type": "uint256"
        },
        {
          "indexed": false,
          "internalType": "address",
          "name": "_retailerAddress",
          "type": "address"
        },
        {
          "indexed": false,
          "internalType": "address",
          "name": "_customerAddress",
          "type": "address"
        },
        {
          "indexed": false,
          "internalType": "uint256",
          "name": "_time",
          "type": "uint256"
        }
      ],
      "name": "Product_Sold",
      "type": "event"
    },
    {
      "inputs": [
        {
          "internalType": "uint256",
          "name": "",
          "type": "uint256"
        },
        {
          "internalType": "uint256",
          "name": "",
          "type": "uint256"
        }
      ],
      "name": "Product_Retailers",
      "outputs": [
        {
          "internalType": "address",
          "name": "",
          "type": "address"
        }
      ],
      "stateMutability": "view",
      "type": "function",
      "constant": true
    },
    {
      "inputs": [
        {
          "internalType": "address",
          "name": "",
          "type": "address"
        },
        {
          "internalType": "uint256",
          "name": "",
          "type": "uint256"
        }
      ],
      "name": "customer_orders",
      "outputs": [
        {
          "internalType": "uint256",
          "name": "",
          "type": "uint256"
        }
      ],
      "stateMutability": "view",
      "type": "function",
      "constant": true
    },
    {
      "inputs": [
        {
          "internalType": "address",
          "name": "",
          "type": "address"
        }
      ],
      "name": "customers",
      "outputs": [
        {
          "internalType": "address",
          "name": "id",
          "type": "address"
        },
        {
          "internalType": "string",
          "name": "name",
          "type": "string"
        },
        {
          "internalType": "uint256",
          "name": "total_orders",
          "type": "uint256"
        }
      ],
      "stateMutability": "view",
      "type": "function",
      "constant": true
    },
    {
      "inputs": [
        {
          "internalType": "address",
          "name": "",
          "type": "address"
        },
        {
          "internalType": "uint256",
          "name": "",
          "type": "uint256"
        }
      ],
      "name": "manufacturer_inventory",
      "outputs": [
        {
          "internalType": "uint256",
          "name": "",
          "type": "uint256"
        }
      ],
      "stateMutability": "view",
      "type": "function",
      "constant": true
    },
    {
      "inputs": [
        {
          "internalType": "address",
          "name": "",
          "type": "address"
        }
      ],
      "name": "manufacturers",
      "outputs": [
        {
          "internalType": "address",
          "name": "id",
          "type": "address"
        },
        {
          "internalType": "string",
          "name": "name",
          "type": "string"
        },
        {
          "internalType": "uint256",
          "name": "total_products",
          "type": "uint256"
        }
      ],
      "stateMutability": "view",
      "type": "function",
      "constant": true
    },
    {
      "inputs": [
        {
          "internalType": "uint256",
          "name": "",
          "type": "uint256"
        }
      ],
      "name": "products",
      "outputs": [
        {
          "internalType": "uint256",
          "name": "id",
          "type": "uint256"
        },
        {
          "internalType": "string",
          "name": "name",
          "type": "string"
        },
        {
          "internalType": "uint256",
          "name": "price",
          "type": "uint256"
        },
        {
          "internalType": "string",
          "name": "ipfs_hash",
          "type": "string"
        },
        {
          "internalType": "enum DeTrace.Stage",
          "name": "stage",
          "type": "uint8"
        },
        {
          "internalType": "address",
          "name": "manufacturer",
          "type": "address"
        },
        {
          "internalType": "uint256",
          "name": "total_retailers",
          "type": "uint256"
        },
        {
          "internalType": "address",
          "name": "customer",
          "type": "address"
        },
        {
          "internalType": "address",
          "name": "currentOwner",
          "type": "address"
        }
      ],
      "stateMutability": "view",
      "type": "function",
      "constant": true
    },
    {
      "inputs": [
        {
          "internalType": "address",
          "name": "",
          "type": "address"
        },
        {
          "internalType": "uint256",
          "name": "",
          "type": "uint256"
        }
      ],
      "name": "retailer_inventory",
      "outputs": [
        {
          "internalType": "uint256",
          "name": "",
          "type": "uint256"
        }
      ],
      "stateMutability": "view",
      "type": "function",
      "constant": true
    },
    {
      "inputs": [
        {
          "internalType": "address",
          "name": "",
          "type": "address"
        }
      ],
      "name": "retailers",
      "outputs": [
        {
          "internalType": "address",
          "name": "id",
          "type": "address"
        },
        {
          "internalType": "string",
          "name": "name",
          "type": "string"
        },
        {
          "internalType": "uint256",
          "name": "total_products",
          "type": "uint256"
        }
      ],
      "stateMutability": "view",
      "type": "function",
      "constant": true
    },
    {
      "inputs": [],
      "name": "total_products",
      "outputs": [
        {
          "internalType": "uint256",
          "name": "",
          "type": "uint256"
        }
      ],
      "stateMutability": "view",
      "type": "function",
      "constant": true
    },
    {
      "inputs": [],
      "name": "getProducts",
      "outputs": [
        {
          "components": [
            {
              "internalType": "uint256",
              "name": "id",
              "type": "uint256"
            },
            {
              "internalType": "string",
              "name": "name",
              "type": "string"
            },
            {
              "internalType": "uint256",
              "name": "price",
              "type": "uint256"
            },
            {
              "internalType": "string",
              "name": "ipfs_hash",
              "type": "string"
            },
            {
              "internalType": "enum DeTrace.Stage",
              "name": "stage",
              "type": "uint8"
            },
            {
              "internalType": "address",
              "name": "manufacturer",
              "type": "address"
            },
            {
              "internalType": "uint256",
              "name": "total_retailers",
              "type": "uint256"
            },
            {
              "internalType": "address",
              "name": "customer",
              "type": "address"
            },
            {
              "internalType": "address",
              "name": "currentOwner",
              "type": "address"
            }
          ],
          "internalType": "struct DeTrace.Product[]",
          "name": "",
          "type": "tuple[]"
        }
      ],
      "stateMutability": "view",
      "type": "function",
      "constant": true
    },
    {
      "inputs": [
        {
          "internalType": "string",
          "name": "_name",
          "type": "string"
        }
      ],
      "name": "addManufacturer",
      "outputs": [
        {
          "components": [
            {
              "internalType": "address",
              "name": "id",
              "type": "address"
            },
            {
              "internalType": "string",
              "name": "name",
              "type": "string"
            },
            {
              "internalType": "uint256",
              "name": "total_products",
              "type": "uint256"
            }
          ],
          "internalType": "struct DeTrace.Manufacturer",
          "name": "",
          "type": "tuple"
        }
      ],
      "stateMutability": "nonpayable",
      "type": "function"
    },
    {
      "inputs": [
        {
          "internalType": "string",
          "name": "_name",
          "type": "string"
        }
      ],
      "name": "addRetailer",
      "outputs": [
        {
          "components": [
            {
              "internalType": "address",
              "name": "id",
              "type": "address"
            },
            {
              "internalType": "string",
              "name": "name",
              "type": "string"
            },
            {
              "internalType": "uint256",
              "name": "total_products",
              "type": "uint256"
            }
          ],
          "internalType": "struct DeTrace.Retailer",
          "name": "",
          "type": "tuple"
        }
      ],
      "stateMutability": "nonpayable",
      "type": "function"
    },
    {
      "inputs": [
        {
          "internalType": "string",
          "name": "_name",
          "type": "string"
        }
      ],
      "name": "addCustomer",
      "outputs": [
        {
          "components": [
            {
              "internalType": "address",
              "name": "id",
              "type": "address"
            },
            {
              "internalType": "string",
              "name": "name",
              "type": "string"
            },
            {
              "internalType": "uint256",
              "name": "total_orders",
              "type": "uint256"
            }
          ],
          "internalType": "struct DeTrace.Customer",
          "name": "",
          "type": "tuple"
        }
      ],
      "stateMutability": "nonpayable",
      "type": "function"
    },
    {
      "inputs": [
        {
          "internalType": "string",
          "name": "_name",
          "type": "string"
        },
        {
          "internalType": "uint256",
          "name": "_price",
          "type": "uint256"
        },
        {
          "internalType": "string",
          "name": "_ipfs_hash",
          "type": "string"
        },
        {
          "internalType": "uint256",
          "name": "_time",
          "type": "uint256"
        }
      ],
      "name": "addProduct",
      "outputs": [
        {
          "components": [
            {
              "internalType": "uint256",
              "name": "id",
              "type": "uint256"
            },
            {
              "internalType": "string",
              "name": "name",
              "type": "string"
            },
            {
              "internalType": "uint256",
              "name": "price",
              "type": "uint256"
            },
            {
              "internalType": "string",
              "name": "ipfs_hash",
              "type": "string"
            },
            {
              "internalType": "enum DeTrace.Stage",
              "name": "stage",
              "type": "uint8"
            },
            {
              "internalType": "address",
              "name": "manufacturer",
              "type": "address"
            },
            {
              "internalType": "uint256",
              "name": "total_retailers",
              "type": "uint256"
            },
            {
              "internalType": "address",
              "name": "customer",
              "type": "address"
            },
            {
              "internalType": "address",
              "name": "currentOwner",
              "type": "address"
            }
          ],
          "internalType": "struct DeTrace.Product",
          "name": "",
          "type": "tuple"
        }
      ],
      "stateMutability": "nonpayable",
      "type": "function"
    },
    {
      "inputs": [
        {
          "internalType": "uint256",
          "name": "_productId",
          "type": "uint256"
        },
        {
          "internalType": "uint256",
          "name": "_time",
          "type": "uint256"
        }
      ],
      "name": "releaseProduct",
      "outputs": [
        {
          "components": [
            {
              "internalType": "uint256",
              "name": "id",
              "type": "uint256"
            },
            {
              "internalType": "string",
              "name": "name",
              "type": "string"
            },
            {
              "internalType": "uint256",
              "name": "price",
              "type": "uint256"
            },
            {
              "internalType": "string",
              "name": "ipfs_hash",
              "type": "string"
            },
            {
              "internalType": "enum DeTrace.Stage",
              "name": "stage",
              "type": "uint8"
            },
            {
              "internalType": "address",
              "name": "manufacturer",
              "type": "address"
            },
            {
              "internalType": "uint256",
              "name": "total_retailers",
              "type": "uint256"
            },
            {
              "internalType": "address",
              "name": "customer",
              "type": "address"
            },
            {
              "internalType": "address",
              "name": "currentOwner",
              "type": "address"
            }
          ],
          "internalType": "struct DeTrace.Product",
          "name": "",
          "type": "tuple"
        }
      ],
      "stateMutability": "nonpayable",
      "type": "function"
    },
    {
      "inputs": [
        {
          "internalType": "uint256",
          "name": "_productId",
          "type": "uint256"
        },
        {
          "internalType": "uint256",
          "name": "_time",
          "type": "uint256"
        }
      ],
      "name": "buyProduct",
      "outputs": [
        {
          "components": [
            {
              "internalType": "uint256",
              "name": "id",
              "type": "uint256"
            },
            {
              "internalType": "string",
              "name": "name",
              "type": "string"
            },
            {
              "internalType": "uint256",
              "name": "price",
              "type": "uint256"
            },
            {
              "internalType": "string",
              "name": "ipfs_hash",
              "type": "string"
            },
            {
              "internalType": "enum DeTrace.Stage",
              "name": "stage",
              "type": "uint8"
            },
            {
              "internalType": "address",
              "name": "manufacturer",
              "type": "address"
            },
            {
              "internalType": "uint256",
              "name": "total_retailers",
              "type": "uint256"
            },
            {
              "internalType": "address",
              "name": "customer",
              "type": "address"
            },
            {
              "internalType": "address",
              "name": "currentOwner",
              "type": "address"
            }
          ],
          "internalType": "struct DeTrace.Product",
          "name": "",
          "type": "tuple"
        }
      ],
      "stateMutability": "nonpayable",
      "type": "function"
    },
    {
      "inputs": [
        {
          "internalType": "address",
          "name": "_manufacturerId",
          "type": "address"
        }
      ],
      "name": "getManufacturerDetails",
      "outputs": [
        {
          "components": [
            {
              "internalType": "address",
              "name": "id",
              "type": "address"
            },
            {
              "internalType": "string",
              "name": "name",
              "type": "string"
            },
            {
              "internalType": "uint256",
              "name": "total_products",
              "type": "uint256"
            }
          ],
          "internalType": "struct DeTrace.Manufacturer",
          "name": "",
          "type": "tuple"
        }
      ],
      "stateMutability": "view",
      "type": "function",
      "constant": true
    },
    {
      "inputs": [
        {
          "internalType": "address",
          "name": "_manufacturerId",
          "type": "address"
        }
      ],
      "name": "getManufacturerInventory",
      "outputs": [
        {
          "internalType": "uint256[]",
          "name": "",
          "type": "uint256[]"
        }
      ],
      "stateMutability": "view",
      "type": "function",
      "constant": true
    },
    {
      "inputs": [
        {
          "internalType": "address",
          "name": "_retailerId",
          "type": "address"
        }
      ],
      "name": "getRetailerDetails",
      "outputs": [
        {
          "components": [
            {
              "internalType": "address",
              "name": "id",
              "type": "address"
            },
            {
              "internalType": "string",
              "name": "name",
              "type": "string"
            },
            {
              "internalType": "uint256",
              "name": "total_products",
              "type": "uint256"
            }
          ],
          "internalType": "struct DeTrace.Retailer",
          "name": "",
          "type": "tuple"
        }
      ],
      "stateMutability": "view",
      "type": "function",
      "constant": true
    },
    {
      "inputs": [
        {
          "internalType": "address",
          "name": "_retailerId",
          "type": "address"
        }
      ],
      "name": "getRetailerInventory",
      "outputs": [
        {
          "internalType": "uint256[]",
          "name": "",
          "type": "uint256[]"
        }
      ],
      "stateMutability": "view",
      "type": "function",
      "constant": true
    },
    {
      "inputs": [
        {
          "internalType": "address",
          "name": "_customerId",
          "type": "address"
        }
      ],
      "name": "getCustomerDetails",
      "outputs": [
        {
          "components": [
            {
              "internalType": "address",
              "name": "id",
              "type": "address"
            },
            {
              "internalType": "string",
              "name": "name",
              "type": "string"
            },
            {
              "internalType": "uint256",
              "name": "total_orders",
              "type": "uint256"
            }
          ],
          "internalType": "struct DeTrace.Customer",
          "name": "",
          "type": "tuple"
        }
      ],
      "stateMutability": "view",
      "type": "function",
      "constant": true
    },
    {
      "inputs": [
        {
          "internalType": "address",
          "name": "_customerId",
          "type": "address"
        }
      ],
      "name": "getCustomerOrders",
      "outputs": [
        {
          "internalType": "uint256[]",
          "name": "",
          "type": "uint256[]"
        }
      ],
      "stateMutability": "view",
      "type": "function",
      "constant": true
    },
    {
      "inputs": [
        {
          "internalType": "uint256",
          "name": "_productId",
          "type": "uint256"
        }
      ],
      "name": "getProductDetails",
      "outputs": [
        {
          "components": [
            {
              "internalType": "uint256",
              "name": "id",
              "type": "uint256"
            },
            {
              "internalType": "string",
              "name": "name",
              "type": "string"
            },
            {
              "internalType": "uint256",
              "name": "price",
              "type": "uint256"
            },
            {
              "internalType": "string",
              "name": "ipfs_hash",
              "type": "string"
            },
            {
              "internalType": "enum DeTrace.Stage",
              "name": "stage",
              "type": "uint8"
            },
            {
              "internalType": "address",
              "name": "manufacturer",
              "type": "address"
            },
            {
              "internalType": "uint256",
              "name": "total_retailers",
              "type": "uint256"
            },
            {
              "internalType": "address",
              "name": "customer",
              "type": "address"
            },
            {
              "internalType": "address",
              "name": "currentOwner",
              "type": "address"
            }
          ],
          "internalType": "struct DeTrace.Product",
          "name": "",
          "type": "tuple"
        },
        {
          "components": [
            {
              "internalType": "address",
              "name": "id",
              "type": "address"
            },
            {
              "internalType": "string",
              "name": "name",
              "type": "string"
            },
            {
              "internalType": "uint256",
              "name": "total_products",
              "type": "uint256"
            }
          ],
          "internalType": "struct DeTrace.Retailer[]",
          "name": "",
          "type": "tuple[]"
        },
        {
          "components": [
            {
              "internalType": "address",
              "name": "id",
              "type": "address"
            },
            {
              "internalType": "string",
              "name": "name",
              "type": "string"
            },
            {
              "internalType": "uint256",
              "name": "total_products",
              "type": "uint256"
            }
          ],
          "internalType": "struct DeTrace.Manufacturer",
          "name": "",
          "type": "tuple"
        },
        {
          "components": [
            {
              "internalType": "address",
              "name": "id",
              "type": "address"
            },
            {
              "internalType": "string",
              "name": "name",
              "type": "string"
            },
            {
              "internalType": "uint256",
              "name": "total_orders",
              "type": "uint256"
            }
          ],
          "internalType": "struct DeTrace.Customer",
          "name": "",
          "type": "tuple"
        }
      ],
      "stateMutability": "view",
      "type": "function",
      "constant": true
    },
    {
      "inputs": [
        {
          "internalType": "uint256",
          "name": "_productId",
          "type": "uint256"
        }
      ],
      "name": "getCurrentStatus",
      "outputs": [
        {
          "internalType": "enum DeTrace.Stage",
          "name": "",
          "type": "uint8"
        },
        {
          "internalType": "address",
          "name": "",
          "type": "address"
        },
        {
          "components": [
            {
              "internalType": "address",
              "name": "id",
              "type": "address"
            },
            {
              "internalType": "string",
              "name": "name",
              "type": "string"
            },
            {
              "internalType": "uint256",
              "name": "total_products",
              "type": "uint256"
            }
          ],
          "internalType": "struct DeTrace.Manufacturer",
          "name": "",
          "type": "tuple"
        },
        {
          "components": [
            {
              "internalType": "address",
              "name": "id",
              "type": "address"
            },
            {
              "internalType": "string",
              "name": "name",
              "type": "string"
            },
            {
              "internalType": "uint256",
              "name": "total_orders",
              "type": "uint256"
            }
          ],
          "internalType": "struct DeTrace.Customer",
          "name": "",
          "type": "tuple"
        },
        {
          "components": [
            {
              "internalType": "address",
              "name": "id",
              "type": "address"
            },
            {
              "internalType": "string",
              "name": "name",
              "type": "string"
            },
            {
              "internalType": "uint256",
              "name": "total_products",
              "type": "uint256"
            }
          ],
          "internalType": "struct DeTrace.Retailer",
          "name": "",
          "type": "tuple"
        }
      ],
      "stateMutability": "view",
      "type": "function",
      "constant": true
    },
    {
      "inputs": [
        {
          "internalType": "address",
          "name": "_user",
          "type": "address"
        }
      ],
      "name": "getUserType",
      "outputs": [
        {
          "internalType": "enum DeTrace.Role",
          "name": "",
          "type": "uint8"
        }
      ],
      "stateMutability": "view",
      "type": "function",
      "constant": true
    }
  ],
  "bytecode": "0x60806040523480156200001157600080fd5b50600080819055507f7b156246723a58575721985ed99046dbbecb42c4dc7265035b5f6e3a9ceab4dc6040516200004890620000b7565b60405180910390a1620000d9565b600082825260208201905092915050565b7f4465547261636520686173206265656e206465706c6f79656400000000000000600082015250565b60006200009f60198362000056565b9150620000ac8262000067565b602082019050919050565b60006020820190508181036000830152620000d28162000090565b9050919050565b615d9080620000e96000396000f3fe608060405234801561001057600080fd5b5060043610610190576000357c0100000000000000000000000000000000000000000000000000000000900480636813b53b116100fb5780638f5ae799116100b45780639a268f351161008e5780639a268f3514610582578063a0aa13c6146105b4578063c29b2f20146105e8578063c41381a91461060657610190565b80638f5ae799146104f257806395d0040714610522578063983839221461055257610190565b80636813b53b146103d75780636b5eb09c1461040a5780637acc0b201461043c5780637efa6959146104745780638ab7bada146104925780638b3f863f146104c257610190565b80633a2a925c1161014d5780633a2a925c146102b757806345b74c17146102e7578063482f63da1461031757806353b6286614610347578063565040261461037757806363ba8315146103a757610190565b806303dd3d81146101955780630458c5d7146101c55780630c60f83d146101f557806322713cc71461022557806322f974d214610255578063336989ae14610285575b600080fd5b6101af60048036038101906101aa9190614a25565b610636565b6040516101bc9190614ba0565b60405180910390f35b6101df60048036038101906101da9190614bee565b6107d2565b6040516101ec9190614d71565b60405180910390f35b61020f600480360381019061020a9190614dbf565b611488565b60405161021c9190614ba0565b60405180910390f35b61023f600480360381019061023a9190614dbf565b6115d9565b60405161024c9190614e3c565b60405180910390f35b61026f600480360381019061026a9190614dbf565b61172a565b60405161027c9190614f0d565b60405180910390f35b61029f600480360381019061029a9190614dbf565b6117c7565b6040516102ae93929190614f97565b60405180910390f35b6102d160048036038101906102cc9190614fd5565b611899565b6040516102de9190614d71565b60405180910390f35b61030160048036038101906102fc9190614dbf565b611fb6565b60405161030e9190614f0d565b60405180910390f35b610331600480360381019061032c9190615074565b612053565b60405161033e91906150b4565b60405180910390f35b610361600480360381019061035c9190614bee565b612084565b60405161036e9190614d71565b60405180910390f35b610391600480360381019061038c9190615074565b612ef9565b60405161039e91906150b4565b60405180910390f35b6103c160048036038101906103bc9190614dbf565b612f2a565b6040516103ce919061511f565b60405180910390f35b6103f160048036038101906103ec9190615141565b61307b565b6040516104019493929190615280565b60405180910390f35b610424600480360381019061041f9190614dbf565b6134d9565b60405161043393929190614f97565b60405180910390f35b61045660048036038101906104519190615141565b6135ab565b60405161046b999897969594939291906152f0565b60405180910390f35b61047c613786565b60405161048991906150b4565b60405180910390f35b6104ac60048036038101906104a79190615074565b61378c565b6040516104b991906150b4565b60405180910390f35b6104dc60048036038101906104d79190614dbf565b6137bd565b6040516104e991906153d3565b60405180910390f35b61050c60048036038101906105079190614a25565b6139a5565b6040516105199190614e3c565b60405180910390f35b61053c60048036038101906105379190614a25565b613b4c565b604051610549919061511f565b60405180910390f35b61056c60048036038101906105679190614dbf565b613cf3565b6040516105799190614f0d565b60405180910390f35b61059c60048036038101906105979190614dbf565b613d90565b6040516105ab93929190614f97565b60405180910390f35b6105ce60048036038101906105c99190615141565b613e62565b6040516105df9594939291906153ee565b60405180910390f35b6105f0614264565b6040516105fd91906155e4565b60405180910390f35b610620600480360381019061061b9190614bee565b614543565b60405161062d9190615606565b60405180910390f35b61063e61463f565b6000600460003373ffffffffffffffffffffffffffffffffffffffff1673ffffffffffffffffffffffffffffffffffffffff168152602001908152602001600020600101805461068d90615650565b9050146106cf576040517f08c379a00000000000000000000000000000000000000000000000000000000081526004016106c6906156f4565b60405180910390fd5b6106d761463f565b33816000019073ffffffffffffffffffffffffffffffffffffffff16908173ffffffffffffffffffffffffffffffffffffffff168152505082816020018190525080600460003373ffffffffffffffffffffffffffffffffffffffff1673ffffffffffffffffffffffffffffffffffffffff16815260200190815260200160002060008201518160000160006101000a81548173ffffffffffffffffffffffffffffffffffffffff021916908373ffffffffffffffffffffffffffffffffffffffff16021790555060208201518160010190805190602001906107bb929190614676565b506040820151816002015590505080915050919050565b6107da6146fc565b33600073ffffffffffffffffffffffffffffffffffffffff16600360008373ffffffffffffffffffffffffffffffffffffffff1673ffffffffffffffffffffffffffffffffffffffff16815260200190815260200160002060000160009054906101000a900473ffffffffffffffffffffffffffffffffffffffff1673ffffffffffffffffffffffffffffffffffffffff1614156108ad576040517f08c379a00000000000000000000000000000000000000000000000000000000081526004016108a490615786565b60405180910390fd5b60005484106108f1576040517f08c379a00000000000000000000000000000000000000000000000000000000081526004016108e8906157f2565b60405180910390fd5b60006001858154811061090757610906615812565b5b9060005260206000209060080201604051806101200160405290816000820154815260200160018201805461093b90615650565b80601f016020809104026020016040519081016040528092919081815260200182805461096790615650565b80156109b45780601f10610989576101008083540402835291602001916109b4565b820191906000526020600020905b81548152906001019060200180831161099757829003601f168201915b50505050508152602001600282015481526020016003820180546109d790615650565b80601f0160208091040260200160405190810160405280929190818152602001828054610a0390615650565b8015610a505780601f10610a2557610100808354040283529160200191610a50565b820191906000526020600020905b815481529060010190602001808311610a3357829003601f168201915b505050505081526020016004820160009054906101000a900460ff166002811115610a7e57610a7d614c2e565b5b6002811115610a9057610a8f614c2e565b5b81526020016004820160019054906101000a900473ffffffffffffffffffffffffffffffffffffffff1673ffffffffffffffffffffffffffffffffffffffff1673ffffffffffffffffffffffffffffffffffffffff168152602001600582015481526020016006820160009054906101000a900473ffffffffffffffffffffffffffffffffffffffff1673ffffffffffffffffffffffffffffffffffffffff1673ffffffffffffffffffffffffffffffffffffffff1681526020016007820160009054906101000a900473ffffffffffffffffffffffffffffffffffffffff1673ffffffffffffffffffffffffffffffffffffffff1673ffffffffffffffffffffffffffffffffffffffff1681525050905060006002811115610bb657610bb5614c2e565b5b81608001516002811115610bcd57610bcc614c2e565b5b14610c0d576040517f08c379a0000000000000000000000000000000000000000000000000000000008152600401610c04906158b3565b60405180910390fd5b60056000868152602001908152602001600020339080600181540180825580915050600190039060005260206000200160009091909190916101000a81548173ffffffffffffffffffffffffffffffffffffffff021916908373ffffffffffffffffffffffffffffffffffffffff1602179055508060c0018051809190610c9390615902565b81525050600181608001906002811115610cb057610caf614c2e565b5b90816002811115610cc457610cc3614c2e565b5b815250503381610100019073ffffffffffffffffffffffffffffffffffffffff16908173ffffffffffffffffffffffffffffffffffffffff16815250506000600260008360a0015173ffffffffffffffffffffffffffffffffffffffff1673ffffffffffffffffffffffffffffffffffffffff1681526020019081526020016000206040518060600160405290816000820160009054906101000a900473ffffffffffffffffffffffffffffffffffffffff1673ffffffffffffffffffffffffffffffffffffffff1673ffffffffffffffffffffffffffffffffffffffff168152602001600182018054610db790615650565b80601f0160208091040260200160405190810160405280929190818152602001828054610de390615650565b8015610e305780601f10610e0557610100808354040283529160200191610e30565b820191906000526020600020905b815481529060010190602001808311610e1357829003601f168201915b50505050508152602001600282015481525050905060005b8160400151811015610f715786600660008560a0015173ffffffffffffffffffffffffffffffffffffffff1673ffffffffffffffffffffffffffffffffffffffff1681526020019081526020016000208281548110610eaa57610ea9615812565b5b90600052602060002001541415610f5e57610f0781600660008660a0015173ffffffffffffffffffffffffffffffffffffffff1673ffffffffffffffffffffffffffffffffffffffff168152602001908152602001600020614591565b600660008560a0015173ffffffffffffffffffffffffffffffffffffffff1673ffffffffffffffffffffffffffffffffffffffff168152602001908152602001600020908054610f5892919061479c565b50610f71565b8080610f6990615902565b915050610e48565b50600181604001818151610f85919061594b565b9150818152505080600260008460a0015173ffffffffffffffffffffffffffffffffffffffff1673ffffffffffffffffffffffffffffffffffffffff16815260200190815260200160002060008201518160000160006101000a81548173ffffffffffffffffffffffffffffffffffffffff021916908373ffffffffffffffffffffffffffffffffffffffff1602179055506020820151816001019080519060200190611033929190614676565b5060408201518160020155905050600760003373ffffffffffffffffffffffffffffffffffffffff1673ffffffffffffffffffffffffffffffffffffffff168152602001908152602001600020826000015190806001815401808255809150506001900390600052602060002001600090919091909150556000600360003373ffffffffffffffffffffffffffffffffffffffff1673ffffffffffffffffffffffffffffffffffffffff1681526020019081526020016000206040518060600160405290816000820160009054906101000a900473ffffffffffffffffffffffffffffffffffffffff1673ffffffffffffffffffffffffffffffffffffffff1673ffffffffffffffffffffffffffffffffffffffff16815260200160018201805461115d90615650565b80601f016020809104026020016040519081016040528092919081815260200182805461118990615650565b80156111d65780601f106111ab576101008083540402835291602001916111d6565b820191906000526020600020905b8154815290600101906020018083116111b957829003601f168201915b5050505050815260200160028201548152505090506001816040018181516111fe919061597f565b9150818152505080600360003373ffffffffffffffffffffffffffffffffffffffff1673ffffffffffffffffffffffffffffffffffffffff16815260200190815260200160002060008201518160000160006101000a81548173ffffffffffffffffffffffffffffffffffffffff021916908373ffffffffffffffffffffffffffffffffffffffff16021790555060208201518160010190805190602001906112a8929190614676565b506040820151816002015590505082600188815481106112cb576112ca615812565b5b90600052602060002090600802016000820151816000015560208201518160010190805190602001906112ff929190614676565b50604082015181600201556060820151816003019080519060200190611326929190614676565b5060808201518160040160006101000a81548160ff0219169083600281111561135257611351614c2e565b5b021790555060a08201518160040160016101000a81548173ffffffffffffffffffffffffffffffffffffffff021916908373ffffffffffffffffffffffffffffffffffffffff16021790555060c0820151816005015560e08201518160060160006101000a81548173ffffffffffffffffffffffffffffffffffffffff021916908373ffffffffffffffffffffffffffffffffffffffff1602179055506101008201518160070160006101000a81548173ffffffffffffffffffffffffffffffffffffffff021916908373ffffffffffffffffffffffffffffffffffffffff1602179055509050507fb682cb3ef1a902a3234df9dcec0308d14f06c57140df377efbca2044c5c7255b878460a00151338960405161147394939291906159d5565b60405180910390a18294505050505092915050565b61149061463f565b6000600460008473ffffffffffffffffffffffffffffffffffffffff1673ffffffffffffffffffffffffffffffffffffffff1681526020019081526020016000206040518060600160405290816000820160009054906101000a900473ffffffffffffffffffffffffffffffffffffffff1673ffffffffffffffffffffffffffffffffffffffff1673ffffffffffffffffffffffffffffffffffffffff16815260200160018201805461154290615650565b80601f016020809104026020016040519081016040528092919081815260200182805461156e90615650565b80156115bb5780601f10611590576101008083540402835291602001916115bb565b820191906000526020600020905b81548152906001019060200180831161159e57829003601f168201915b50505050508152602001600282015481525050905080915050919050565b6115e16147ee565b6000600260008473ffffffffffffffffffffffffffffffffffffffff1673ffffffffffffffffffffffffffffffffffffffff1681526020019081526020016000206040518060600160405290816000820160009054906101000a900473ffffffffffffffffffffffffffffffffffffffff1673ffffffffffffffffffffffffffffffffffffffff1673ffffffffffffffffffffffffffffffffffffffff16815260200160018201805461169390615650565b80601f01602080910402602001604051908101604052809291908181526020018280546116bf90615650565b801561170c5780601f106116e15761010080835404028352916020019161170c565b820191906000526020600020905b8154815290600101906020018083116116ef57829003601f168201915b50505050508152602001600282015481525050905080915050919050565b60606000600860008473ffffffffffffffffffffffffffffffffffffffff1673ffffffffffffffffffffffffffffffffffffffff1681526020019081526020016000208054806020026020016040519081016040528092919081815260200182805480156117b757602002820191906000526020600020905b8154815260200190600101908083116117a3575b5050505050905080915050919050565b60046020528060005260406000206000915090508060000160009054906101000a900473ffffffffffffffffffffffffffffffffffffffff169080600101805461181090615650565b80601f016020809104026020016040519081016040528092919081815260200182805461183c90615650565b80156118895780601f1061185e57610100808354040283529160200191611889565b820191906000526020600020905b81548152906001019060200180831161186c57829003601f168201915b5050505050908060020154905083565b6118a16146fc565b33600073ffffffffffffffffffffffffffffffffffffffff16600260008373ffffffffffffffffffffffffffffffffffffffff1673ffffffffffffffffffffffffffffffffffffffff16815260200190815260200160002060000160009054906101000a900473ffffffffffffffffffffffffffffffffffffffff1673ffffffffffffffffffffffffffffffffffffffff161415611974576040517f08c379a000000000000000000000000000000000000000000000000000000000815260040161196b90615a8c565b60405180910390fd5b600073ffffffffffffffffffffffffffffffffffffffff16600260003373ffffffffffffffffffffffffffffffffffffffff1673ffffffffffffffffffffffffffffffffffffffff16815260200190815260200160002060000160009054906101000a900473ffffffffffffffffffffffffffffffffffffffff1673ffffffffffffffffffffffffffffffffffffffff161415611a46576040517f08c379a0000000000000000000000000000000000000000000000000000000008152600401611a3d90615b1e565b60405180910390fd5b6000600260003373ffffffffffffffffffffffffffffffffffffffff1673ffffffffffffffffffffffffffffffffffffffff1681526020019081526020016000206040518060600160405290816000820160009054906101000a900473ffffffffffffffffffffffffffffffffffffffff1673ffffffffffffffffffffffffffffffffffffffff1673ffffffffffffffffffffffffffffffffffffffff168152602001600182018054611af890615650565b80601f0160208091040260200160405190810160405280929190818152602001828054611b2490615650565b8015611b715780601f10611b4657610100808354040283529160200191611b71565b820191906000526020600020905b815481529060010190602001808311611b5457829003601f168201915b505050505081526020016002820154815250509050611b8e6146fc565b6000548160000181815250508781602001819052508681604001818152505085816060018190525081600001518160a0019073ffffffffffffffffffffffffffffffffffffffff16908173ffffffffffffffffffffffffffffffffffffffff1681525050600081608001906002811115611c0b57611c0a614c2e565b5b90816002811115611c1f57611c1e614c2e565b5b8152505060008160c00181815250503381610100019073ffffffffffffffffffffffffffffffffffffffff16908173ffffffffffffffffffffffffffffffffffffffff16815250506001819080600181540180825580915050600190039060005260206000209060080201600090919091909150600082015181600001556020820151816001019080519060200190611cb9929190614676565b50604082015181600201556060820151816003019080519060200190611ce0929190614676565b5060808201518160040160006101000a81548160ff02191690836002811115611d0c57611d0b614c2e565b5b021790555060a08201518160040160016101000a81548173ffffffffffffffffffffffffffffffffffffffff021916908373ffffffffffffffffffffffffffffffffffffffff16021790555060c0820151816005015560e08201518160060160006101000a81548173ffffffffffffffffffffffffffffffffffffffff021916908373ffffffffffffffffffffffffffffffffffffffff1602179055506101008201518160070160006101000a81548173ffffffffffffffffffffffffffffffffffffffff021916908373ffffffffffffffffffffffffffffffffffffffff16021790555050506001600080828254611e05919061597f565b92505081905550600660003373ffffffffffffffffffffffffffffffffffffffff1673ffffffffffffffffffffffffffffffffffffffff16815260200190815260200160002081600001519080600181540180825580915050600190039060005260206000200160009091909190915055600182604001818151611e89919061597f565b9150818152505081600260003373ffffffffffffffffffffffffffffffffffffffff1673ffffffffffffffffffffffffffffffffffffffff16815260200190815260200160002060008201518160000160006101000a81548173ffffffffffffffffffffffffffffffffffffffff021916908373ffffffffffffffffffffffffffffffffffffffff1602179055506020820151816001019080519060200190611f33929190614676565b506040820151816002015590505060096005600083600001518152602001908152602001600020908054611f68929190614825565b507f2d7e548cd55c5877c277ad065972404b06ea61314bd4d49a46c1aaaa1d353cd781600001513387604051611fa093929190615b3e565b60405180910390a1809350505050949350505050565b60606000600660008473ffffffffffffffffffffffffffffffffffffffff1673ffffffffffffffffffffffffffffffffffffffff16815260200190815260200160002080548060200260200160405190810160405280929190818152602001828054801561204357602002820191906000526020600020905b81548152602001906001019080831161202f575b5050505050905080915050919050565b6006602052816000526040600020818154811061206f57600080fd5b90600052602060002001600091509150505481565b61208c6146fc565b33600073ffffffffffffffffffffffffffffffffffffffff16600460008373ffffffffffffffffffffffffffffffffffffffff1673ffffffffffffffffffffffffffffffffffffffff16815260200190815260200160002060000160009054906101000a900473ffffffffffffffffffffffffffffffffffffffff1673ffffffffffffffffffffffffffffffffffffffff16141561215f576040517f08c379a000000000000000000000000000000000000000000000000000000000815260040161215690615be7565b60405180910390fd5b60005484106121a3576040517f08c379a000000000000000000000000000000000000000000000000000000000815260040161219a906157f2565b60405180910390fd5b6000600185815481106121b9576121b8615812565b5b906000526020600020906008020160405180610120016040529081600082015481526020016001820180546121ed90615650565b80601f016020809104026020016040519081016040528092919081815260200182805461221990615650565b80156122665780601f1061223b57610100808354040283529160200191612266565b820191906000526020600020905b81548152906001019060200180831161224957829003601f168201915b505050505081526020016002820154815260200160038201805461228990615650565b80601f01602080910402602001604051908101604052809291908181526020018280546122b590615650565b80156123025780601f106122d757610100808354040283529160200191612302565b820191906000526020600020905b8154815290600101906020018083116122e557829003601f168201915b505050505081526020016004820160009054906101000a900460ff1660028111156123305761232f614c2e565b5b600281111561234257612341614c2e565b5b81526020016004820160019054906101000a900473ffffffffffffffffffffffffffffffffffffffff1673ffffffffffffffffffffffffffffffffffffffff1673ffffffffffffffffffffffffffffffffffffffff168152602001600582015481526020016006820160009054906101000a900473ffffffffffffffffffffffffffffffffffffffff1673ffffffffffffffffffffffffffffffffffffffff1673ffffffffffffffffffffffffffffffffffffffff1681526020016007820160009054906101000a900473ffffffffffffffffffffffffffffffffffffffff1673ffffffffffffffffffffffffffffffffffffffff1673ffffffffffffffffffffffffffffffffffffffff168152505090506001600281111561246857612467614c2e565b5b8160800151600281111561247f5761247e614c2e565b5b146124bf576040517f08c379a00000000000000000000000000000000000000000000000000000000081526004016124b690615c79565b60405180910390fd5b6000600560008360000151815260200190815260200160002060018360c001516124e9919061594b565b815481106124fa576124f9615812565b5b9060005260206000200160009054906101000a900473ffffffffffffffffffffffffffffffffffffffff1690506000600360008373ffffffffffffffffffffffffffffffffffffffff1673ffffffffffffffffffffffffffffffffffffffff1681526020019081526020016000206040518060600160405290816000820160009054906101000a900473ffffffffffffffffffffffffffffffffffffffff1673ffffffffffffffffffffffffffffffffffffffff1673ffffffffffffffffffffffffffffffffffffffff1681526020016001820180546125d990615650565b80601f016020809104026020016040519081016040528092919081815260200182805461260590615650565b80156126525780601f1061262757610100808354040283529160200191612652565b820191906000526020600020905b81548152906001019060200180831161263557829003601f168201915b5050505050815260200160028201548152505090506000600460003373ffffffffffffffffffffffffffffffffffffffff1673ffffffffffffffffffffffffffffffffffffffff1681526020019081526020016000206040518060600160405290816000820160009054906101000a900473ffffffffffffffffffffffffffffffffffffffff1673ffffffffffffffffffffffffffffffffffffffff1673ffffffffffffffffffffffffffffffffffffffff16815260200160018201805461271990615650565b80601f016020809104026020016040519081016040528092919081815260200182805461274590615650565b80156127925780601f1061276757610100808354040283529160200191612792565b820191906000526020600020905b81548152906001019060200180831161277557829003601f168201915b5050505050815260200160028201548152505090506002846080019060028111156127c0576127bf614c2e565b5b908160028111156127d4576127d3614c2e565b5b8152505080600001518460e0019073ffffffffffffffffffffffffffffffffffffffff16908173ffffffffffffffffffffffffffffffffffffffff16815250503384610100019073ffffffffffffffffffffffffffffffffffffffff16908173ffffffffffffffffffffffffffffffffffffffff16815250506000600560008a81526020019081526020016000206001600560008c815260200190815260200160002080549050612885919061594b565b8154811061289657612895615812565b5b9060005260206000200160009054906101000a900473ffffffffffffffffffffffffffffffffffffffff1690506000600360008373ffffffffffffffffffffffffffffffffffffffff1673ffffffffffffffffffffffffffffffffffffffff1681526020019081526020016000206040518060600160405290816000820160009054906101000a900473ffffffffffffffffffffffffffffffffffffffff1673ffffffffffffffffffffffffffffffffffffffff1673ffffffffffffffffffffffffffffffffffffffff16815260200160018201805461297590615650565b80601f01602080910402602001604051908101604052809291908181526020018280546129a190615650565b80156129ee5780601f106129c3576101008083540402835291602001916129ee565b820191906000526020600020905b8154815290600101906020018083116129d157829003601f168201915b50505050508152602001600282015481525050905060005b8160400151811015612b23578a600760008573ffffffffffffffffffffffffffffffffffffffff1673ffffffffffffffffffffffffffffffffffffffff1681526020019081526020016000208281548110612a6457612a63615812565b5b90600052602060002001541415612b1057612abd81600760008673ffffffffffffffffffffffffffffffffffffffff1673ffffffffffffffffffffffffffffffffffffffff168152602001908152602001600020614591565b600760008573ffffffffffffffffffffffffffffffffffffffff1673ffffffffffffffffffffffffffffffffffffffff168152602001908152602001600020908054612b0a92919061479c565b50612b23565b8080612b1b90615902565b915050612a06565b50600181604001818151612b37919061594b565b9150818152505080600360008473ffffffffffffffffffffffffffffffffffffffff1673ffffffffffffffffffffffffffffffffffffffff16815260200190815260200160002060008201518160000160006101000a81548173ffffffffffffffffffffffffffffffffffffffff021916908373ffffffffffffffffffffffffffffffffffffffff1602179055506020820151816001019080519060200190612be1929190614676565b5060408201518160020155905050600860003373ffffffffffffffffffffffffffffffffffffffff1673ffffffffffffffffffffffffffffffffffffffff16815260200190815260200160002086600001519080600181540180825580915050600190039060005260206000200160009091909190915055600183604001818151612c6c919061597f565b9150818152505082600460003373ffffffffffffffffffffffffffffffffffffffff1673ffffffffffffffffffffffffffffffffffffffff16815260200190815260200160002060008201518160000160006101000a81548173ffffffffffffffffffffffffffffffffffffffff021916908373ffffffffffffffffffffffffffffffffffffffff1602179055506020820151816001019080519060200190612d16929190614676565b50604082015181600201559050508560018b81548110612d3957612d38615812565b5b9060005260206000209060080201600082015181600001556020820151816001019080519060200190612d6d929190614676565b50604082015181600201556060820151816003019080519060200190612d94929190614676565b5060808201518160040160006101000a81548160ff02191690836002811115612dc057612dbf614c2e565b5b021790555060a08201518160040160016101000a81548173ffffffffffffffffffffffffffffffffffffffff021916908373ffffffffffffffffffffffffffffffffffffffff16021790555060c0820151816005015560e08201518160060160006101000a81548173ffffffffffffffffffffffffffffffffffffffff021916908373ffffffffffffffffffffffffffffffffffffffff1602179055506101008201518160070160006101000a81548173ffffffffffffffffffffffffffffffffffffffff021916908373ffffffffffffffffffffffffffffffffffffffff1602179055509050507f19800d2adcaee3f3c61c7f1bb2b073caf7d1c09ff1ece9e293c93778448c27b28a8560000151338c604051612ee194939291906159d5565b60405180910390a18597505050505050505092915050565b60086020528160005260406000208181548110612f1557600080fd5b90600052602060002001600091509150505481565b612f32614877565b6000600360008473ffffffffffffffffffffffffffffffffffffffff1673ffffffffffffffffffffffffffffffffffffffff1681526020019081526020016000206040518060600160405290816000820160009054906101000a900473ffffffffffffffffffffffffffffffffffffffff1673ffffffffffffffffffffffffffffffffffffffff1673ffffffffffffffffffffffffffffffffffffffff168152602001600182018054612fe490615650565b80601f016020809104026020016040519081016040528092919081815260200182805461301090615650565b801561305d5780601f106130325761010080835404028352916020019161305d565b820191906000526020600020905b81548152906001019060200180831161304057829003601f168201915b50505050508152602001600282015481525050905080915050919050565b6130836146fc565b606061308d6147ee565b61309561463f565b6000600186815481106130ab576130aa615812565b5b906000526020600020906008020160405180610120016040529081600082015481526020016001820180546130df90615650565b80601f016020809104026020016040519081016040528092919081815260200182805461310b90615650565b80156131585780601f1061312d57610100808354040283529160200191613158565b820191906000526020600020905b81548152906001019060200180831161313b57829003601f168201915b505050505081526020016002820154815260200160038201805461317b90615650565b80601f01602080910402602001604051908101604052809291908181526020018280546131a790615650565b80156131f45780601f106131c9576101008083540402835291602001916131f4565b820191906000526020600020905b8154815290600101906020018083116131d757829003601f168201915b505050505081526020016004820160009054906101000a900460ff16600281111561322257613221614c2e565b5b600281111561323457613233614c2e565b5b81526020016004820160019054906101000a900473ffffffffffffffffffffffffffffffffffffffff1673ffffffffffffffffffffffffffffffffffffffff1673ffffffffffffffffffffffffffffffffffffffff168152602001600582015481526020016006820160009054906101000a900473ffffffffffffffffffffffffffffffffffffffff1673ffffffffffffffffffffffffffffffffffffffff1673ffffffffffffffffffffffffffffffffffffffff1681526020016007820160009054906101000a900473ffffffffffffffffffffffffffffffffffffffff1673ffffffffffffffffffffffffffffffffffffffff1673ffffffffffffffffffffffffffffffffffffffff168152505090506000600560008881526020019081526020016000208054806020026020016040519081016040528092919081815260200182805480156133db57602002820191906000526020600020905b8160009054906101000a900473ffffffffffffffffffffffffffffffffffffffff1673ffffffffffffffffffffffffffffffffffffffff1681526020019060010190808311613391575b5050505050905060008260c0015167ffffffffffffffff811115613402576134016148fa565b5b60405190808252806020026020018201604052801561343b57816020015b613428614877565b8152602001906001900390816134205790505b509050600061344d8460a001516115d9565b9050600061345e8560e00151611488565b905060005b84518110156134c05761348f85828151811061348257613481615812565b5b6020026020010151612f2a565b8482815181106134a2576134a1615812565b5b602002602001018190525080806134b890615902565b915050613463565b5084838383985098509850985050505050509193509193565b60026020528060005260406000206000915090508060000160009054906101000a900473ffffffffffffffffffffffffffffffffffffffff169080600101805461352290615650565b80601f016020809104026020016040519081016040528092919081815260200182805461354e90615650565b801561359b5780601f106135705761010080835404028352916020019161359b565b820191906000526020600020905b81548152906001019060200180831161357e57829003601f168201915b5050505050908060020154905083565b600181815481106135bb57600080fd5b90600052602060002090600802016000915090508060000154908060010180546135e490615650565b80601f016020809104026020016040519081016040528092919081815260200182805461361090615650565b801561365d5780601f106136325761010080835404028352916020019161365d565b820191906000526020600020905b81548152906001019060200180831161364057829003601f168201915b50505050509080600201549080600301805461367890615650565b80601f01602080910402602001604051908101604052809291908181526020018280546136a490615650565b80156136f15780601f106136c6576101008083540402835291602001916136f1565b820191906000526020600020905b8154815290600101906020018083116136d457829003601f168201915b5050505050908060040160009054906101000a900460ff16908060040160019054906101000a900473ffffffffffffffffffffffffffffffffffffffff16908060050154908060060160009054906101000a900473ffffffffffffffffffffffffffffffffffffffff16908060070160009054906101000a900473ffffffffffffffffffffffffffffffffffffffff16905089565b60005481565b600760205281600052604060002081815481106137a857600080fd5b90600052602060002001600091509150505481565b60008073ffffffffffffffffffffffffffffffffffffffff16600260008473ffffffffffffffffffffffffffffffffffffffff1673ffffffffffffffffffffffffffffffffffffffff16815260200190815260200160002060000160009054906101000a900473ffffffffffffffffffffffffffffffffffffffff1673ffffffffffffffffffffffffffffffffffffffff161461385d57600090506139a0565b600073ffffffffffffffffffffffffffffffffffffffff16600360008473ffffffffffffffffffffffffffffffffffffffff1673ffffffffffffffffffffffffffffffffffffffff16815260200190815260200160002060000160009054906101000a900473ffffffffffffffffffffffffffffffffffffffff1673ffffffffffffffffffffffffffffffffffffffff16146138fc57600190506139a0565b600073ffffffffffffffffffffffffffffffffffffffff16600460008473ffffffffffffffffffffffffffffffffffffffff1673ffffffffffffffffffffffffffffffffffffffff16815260200190815260200160002060000160009054906101000a900473ffffffffffffffffffffffffffffffffffffffff1673ffffffffffffffffffffffffffffffffffffffff161461399b57600290506139a0565b600390505b919050565b6139ad6147ee565b6000600260003373ffffffffffffffffffffffffffffffffffffffff1673ffffffffffffffffffffffffffffffffffffffff16815260200190815260200160002060010180546139fc90615650565b905014613a3e576040517f08c379a0000000000000000000000000000000000000000000000000000000008152600401613a3590615d0b565b60405180910390fd5b613a466147ee565b33816000019073ffffffffffffffffffffffffffffffffffffffff16908173ffffffffffffffffffffffffffffffffffffffff1681525050828160200181905250600081604001818152505080600260003373ffffffffffffffffffffffffffffffffffffffff1673ffffffffffffffffffffffffffffffffffffffff16815260200190815260200160002060008201518160000160006101000a81548173ffffffffffffffffffffffffffffffffffffffff021916908373ffffffffffffffffffffffffffffffffffffffff1602179055506020820151816001019080519060200190613b35929190614676565b506040820151816002015590505080915050919050565b613b54614877565b6000600360003373ffffffffffffffffffffffffffffffffffffffff1673ffffffffffffffffffffffffffffffffffffffff1681526020019081526020016000206001018054613ba390615650565b905014613be5576040517f08c379a0000000000000000000000000000000000000000000000000000000008152600401613bdc906156f4565b60405180910390fd5b613bed614877565b33816000019073ffffffffffffffffffffffffffffffffffffffff16908173ffffffffffffffffffffffffffffffffffffffff1681525050828160200181905250600081604001818152505080600360003373ffffffffffffffffffffffffffffffffffffffff1673ffffffffffffffffffffffffffffffffffffffff16815260200190815260200160002060008201518160000160006101000a81548173ffffffffffffffffffffffffffffffffffffffff021916908373ffffffffffffffffffffffffffffffffffffffff1602179055506020820151816001019080519060200190613cdc929190614676565b506040820151816002015590505080915050919050565b60606000600760008473ffffffffffffffffffffffffffffffffffffffff1673ffffffffffffffffffffffffffffffffffffffff168152602001908152602001600020805480602002602001604051908101604052809291908181526020018280548015613d8057602002820191906000526020600020905b815481526020019060010190808311613d6c575b5050505050905080915050919050565b60036020528060005260406000206000915090508060000160009054906101000a900473ffffffffffffffffffffffffffffffffffffffff1690806001018054613dd990615650565b80601f0160208091040260200160405190810160405280929190818152602001828054613e0590615650565b8015613e525780601f10613e2757610100808354040283529160200191613e52565b820191906000526020600020905b815481529060010190602001808311613e3557829003601f168201915b5050505050908060020154905083565b600080613e6d6147ee565b613e7561463f565b613e7d614877565b60008060018881548110613e9457613e93615812565b5b90600052602060002090600802016040518061012001604052908160008201548152602001600182018054613ec890615650565b80601f0160208091040260200160405190810160405280929190818152602001828054613ef490615650565b8015613f415780601f10613f1657610100808354040283529160200191613f41565b820191906000526020600020905b815481529060010190602001808311613f2457829003601f168201915b5050505050815260200160028201548152602001600382018054613f6490615650565b80601f0160208091040260200160405190810160405280929190818152602001828054613f9090615650565b8015613fdd5780601f10613fb257610100808354040283529160200191613fdd565b820191906000526020600020905b815481529060010190602001808311613fc057829003601f168201915b505050505081526020016004820160009054906101000a900460ff16600281111561400b5761400a614c2e565b5b600281111561401d5761401c614c2e565b5b81526020016004820160019054906101000a900473ffffffffffffffffffffffffffffffffffffffff1673ffffffffffffffffffffffffffffffffffffffff1673ffffffffffffffffffffffffffffffffffffffff168152602001600582015481526020016006820160009054906101000a900473ffffffffffffffffffffffffffffffffffffffff1673ffffffffffffffffffffffffffffffffffffffff1673ffffffffffffffffffffffffffffffffffffffff1681526020016007820160009054906101000a900473ffffffffffffffffffffffffffffffffffffffff1673ffffffffffffffffffffffffffffffffffffffff1673ffffffffffffffffffffffffffffffffffffffff168152505090506000816080015190506141406147ee565b61414861463f565b614150614877565b6000600281111561416457614163614c2e565b5b84600281111561417757614176614c2e565b5b1415614194578460a00151955061418d866115d9565b9250614246565b6002808111156141a7576141a6614c2e565b5b8460028111156141ba576141b9614c2e565b5b14156141d7578460e0015195506141d086611488565b9150614245565b600560008d815260200190815260200160002060018660c001516141fb919061594b565b8154811061420c5761420b615812565b5b9060005260206000200160009054906101000a900473ffffffffffffffffffffffffffffffffffffffff16955061424286612f2a565b90505b5b83868484849a509a509a509a509a5050505050505091939590929450565b60606001805480602002602001604051908101604052809291908181526020016000905b8282101561453a578382906000526020600020906008020160405180610120016040529081600082015481526020016001820180546142c690615650565b80601f01602080910402602001604051908101604052809291908181526020018280546142f290615650565b801561433f5780601f106143145761010080835404028352916020019161433f565b820191906000526020600020905b81548152906001019060200180831161432257829003601f168201915b505050505081526020016002820154815260200160038201805461436290615650565b80601f016020809104026020016040519081016040528092919081815260200182805461438e90615650565b80156143db5780601f106143b0576101008083540402835291602001916143db565b820191906000526020600020905b8154815290600101906020018083116143be57829003601f168201915b505050505081526020016004820160009054906101000a900460ff16600281111561440957614408614c2e565b5b600281111561441b5761441a614c2e565b5b81526020016004820160019054906101000a900473ffffffffffffffffffffffffffffffffffffffff1673ffffffffffffffffffffffffffffffffffffffff1673ffffffffffffffffffffffffffffffffffffffff168152602001600582015481526020016006820160009054906101000a900473ffffffffffffffffffffffffffffffffffffffff1673ffffffffffffffffffffffffffffffffffffffff1673ffffffffffffffffffffffffffffffffffffffff1681526020016007820160009054906101000a900473ffffffffffffffffffffffffffffffffffffffff1673ffffffffffffffffffffffffffffffffffffffff1673ffffffffffffffffffffffffffffffffffffffff168152505081526020019060010190614288565b50505050905090565b6005602052816000526040600020818154811061455f57600080fd5b906000526020600020016000915091509054906101000a900473ffffffffffffffffffffffffffffffffffffffff1681565b6000808390505b600183805490506145a9919061594b565b81101561460e57826001826145be919061597f565b815481106145cf576145ce615812565b5b90600052602060002001548382815481106145ed576145ec615812565b5b9060005260206000200181905550808061460690615902565b915050614598565b50818054806146205761461f615d2b565b5b6001900381819060005260206000200160009055905581905092915050565b6040518060600160405280600073ffffffffffffffffffffffffffffffffffffffff16815260200160608152602001600081525090565b82805461468290615650565b90600052602060002090601f0160209004810192826146a457600085556146eb565b82601f106146bd57805160ff19168380011785556146eb565b828001600101855582156146eb579182015b828111156146ea5782518255916020019190600101906146cf565b5b5090506146f891906148ae565b5090565b604051806101200160405280600081526020016060815260200160008152602001606081526020016000600281111561473857614737614c2e565b5b8152602001600073ffffffffffffffffffffffffffffffffffffffff16815260200160008152602001600073ffffffffffffffffffffffffffffffffffffffff168152602001600073ffffffffffffffffffffffffffffffffffffffff1681525090565b8280548282559060005260206000209081019282156147dd5760005260206000209182015b828111156147dc5782548255916001019190600101906147c1565b5b5090506147ea91906148ae565b5090565b6040518060600160405280600073ffffffffffffffffffffffffffffffffffffffff16815260200160608152602001600081525090565b8280548282559060005260206000209081019282156148665760005260206000209182015b8281111561486557825482559160010191906001019061484a565b5b50905061487391906148ae565b5090565b6040518060600160405280600073ffffffffffffffffffffffffffffffffffffffff16815260200160608152602001600081525090565b5b808211156148c75760008160009055506001016148af565b5090565b6000604051905090565b600080fd5b600080fd5b600080fd5b600080fd5b6000601f19601f8301169050919050565b7f4e487b7100000000000000000000000000000000000000000000000000000000600052604160045260246000fd5b614932826148e9565b810181811067ffffffffffffffff82111715614951576149506148fa565b5b80604052505050565b60006149646148cb565b90506149708282614929565b919050565b600067ffffffffffffffff8211156149905761498f6148fa565b5b614999826148e9565b9050602081019050919050565b82818337600083830152505050565b60006149c86149c384614975565b61495a565b9050828152602081018484840111156149e4576149e36148e4565b5b6149ef8482856149a6565b509392505050565b600082601f830112614a0c57614a0b6148df565b5b8135614a1c8482602086016149b5565b91505092915050565b600060208284031215614a3b57614a3a6148d5565b5b600082013567ffffffffffffffff811115614a5957614a586148da565b5b614a65848285016149f7565b91505092915050565b600073ffffffffffffffffffffffffffffffffffffffff82169050919050565b6000614a9982614a6e565b9050919050565b614aa981614a8e565b82525050565b600081519050919050565b600082825260208201905092915050565b60005b83811015614ae9578082015181840152602081019050614ace565b83811115614af8576000848401525b50505050565b6000614b0982614aaf565b614b138185614aba565b9350614b23818560208601614acb565b614b2c816148e9565b840191505092915050565b6000819050919050565b614b4a81614b37565b82525050565b6000606083016000830151614b686000860182614aa0565b5060208301518482036020860152614b808282614afe565b9150506040830151614b956040860182614b41565b508091505092915050565b60006020820190508181036000830152614bba8184614b50565b905092915050565b614bcb81614b37565b8114614bd657600080fd5b50565b600081359050614be881614bc2565b92915050565b60008060408385031215614c0557614c046148d5565b5b6000614c1385828601614bd9565b9250506020614c2485828601614bd9565b9150509250929050565b7f4e487b7100000000000000000000000000000000000000000000000000000000600052602160045260246000fd5b60038110614c6e57614c6d614c2e565b5b50565b6000819050614c7f82614c5d565b919050565b6000614c8f82614c71565b9050919050565b614c9f81614c84565b82525050565b600061012083016000830151614cbe6000860182614b41565b5060208301518482036020860152614cd68282614afe565b9150506040830151614ceb6040860182614b41565b5060608301518482036060860152614d038282614afe565b9150506080830151614d186080860182614c96565b5060a0830151614d2b60a0860182614aa0565b5060c0830151614d3e60c0860182614b41565b5060e0830151614d5160e0860182614aa0565b50610100830151614d66610100860182614aa0565b508091505092915050565b60006020820190508181036000830152614d8b8184614ca5565b905092915050565b614d9c81614a8e565b8114614da757600080fd5b50565b600081359050614db981614d93565b92915050565b600060208284031215614dd557614dd46148d5565b5b6000614de384828501614daa565b91505092915050565b6000606083016000830151614e046000860182614aa0565b5060208301518482036020860152614e1c8282614afe565b9150506040830151614e316040860182614b41565b508091505092915050565b60006020820190508181036000830152614e568184614dec565b905092915050565b600081519050919050565b600082825260208201905092915050565b6000819050602082019050919050565b6000614e968383614b41565b60208301905092915050565b6000602082019050919050565b6000614eba82614e5e565b614ec48185614e69565b9350614ecf83614e7a565b8060005b83811015614f00578151614ee78882614e8a565b9750614ef283614ea2565b925050600181019050614ed3565b5085935050505092915050565b60006020820190508181036000830152614f278184614eaf565b905092915050565b614f3881614a8e565b82525050565b600082825260208201905092915050565b6000614f5a82614aaf565b614f648185614f3e565b9350614f74818560208601614acb565b614f7d816148e9565b840191505092915050565b614f9181614b37565b82525050565b6000606082019050614fac6000830186614f2f565b8181036020830152614fbe8185614f4f565b9050614fcd6040830184614f88565b949350505050565b60008060008060808587031215614fef57614fee6148d5565b5b600085013567ffffffffffffffff81111561500d5761500c6148da565b5b615019878288016149f7565b945050602061502a87828801614bd9565b935050604085013567ffffffffffffffff81111561504b5761504a6148da565b5b615057878288016149f7565b925050606061506887828801614bd9565b91505092959194509250565b6000806040838503121561508b5761508a6148d5565b5b600061509985828601614daa565b92505060206150aa85828601614bd9565b9150509250929050565b60006020820190506150c96000830184614f88565b92915050565b60006060830160008301516150e76000860182614aa0565b50602083015184820360208601526150ff8282614afe565b91505060408301516151146040860182614b41565b508091505092915050565b6000602082019050818103600083015261513981846150cf565b905092915050565b600060208284031215615157576151566148d5565b5b600061516584828501614bd9565b91505092915050565b600081519050919050565b600082825260208201905092915050565b6000819050602082019050919050565b60006060830160008301516151b26000860182614aa0565b50602083015184820360208601526151ca8282614afe565b91505060408301516151df6040860182614b41565b508091505092915050565b60006151f6838361519a565b905092915050565b6000602082019050919050565b60006152168261516e565b6152208185615179565b9350836020820285016152328561518a565b8060005b8581101561526e578484038952815161524f85826151ea565b945061525a836151fe565b925060208a01995050600181019050615236565b50829750879550505050505092915050565b6000608082019050818103600083015261529a8187614ca5565b905081810360208301526152ae818661520b565b905081810360408301526152c28185614dec565b905081810360608301526152d68184614b50565b905095945050505050565b6152ea81614c84565b82525050565b600061012082019050615306600083018c614f88565b8181036020830152615318818b614f4f565b9050615327604083018a614f88565b81810360608301526153398189614f4f565b905061534860808301886152e1565b61535560a0830187614f2f565b61536260c0830186614f88565b61536f60e0830185614f2f565b61537d610100830184614f2f565b9a9950505050505050505050565b6004811061539c5761539b614c2e565b5b50565b60008190506153ad8261538b565b919050565b60006153bd8261539f565b9050919050565b6153cd816153b2565b82525050565b60006020820190506153e860008301846153c4565b92915050565b600060a08201905061540360008301886152e1565b6154106020830187614f2f565b81810360408301526154228186614dec565b905081810360608301526154368185614b50565b9050818103608083015261544a81846150cf565b90509695505050505050565b600081519050919050565b600082825260208201905092915050565b6000819050602082019050919050565b60006101208301600083015161549b6000860182614b41565b50602083015184820360208601526154b38282614afe565b91505060408301516154c86040860182614b41565b50606083015184820360608601526154e08282614afe565b91505060808301516154f56080860182614c96565b5060a083015161550860a0860182614aa0565b5060c083015161551b60c0860182614b41565b5060e083015161552e60e0860182614aa0565b50610100830151615543610100860182614aa0565b508091505092915050565b600061555a8383615482565b905092915050565b6000602082019050919050565b600061557a82615456565b6155848185615461565b93508360208202850161559685615472565b8060005b858110156155d257848403895281516155b3858261554e565b94506155be83615562565b925060208a0199505060018101905061559a565b50829750879550505050505092915050565b600060208201905081810360008301526155fe818461556f565b905092915050565b600060208201905061561b6000830184614f2f565b92915050565b7f4e487b7100000000000000000000000000000000000000000000000000000000600052602260045260246000fd5b6000600282049050600182168061566857607f821691505b6020821081141561567c5761567b615621565b5b50919050565b7f54686973206164647265737320697320616c726561647920726567697374657260008201527f65642061732072657461696c6572000000000000000000000000000000000000602082015250565b60006156de602e83614f3e565b91506156e982615682565b604082019050919050565b6000602082019050818103600083015261570d816156d1565b9050919050565b7f4f6e6c792072657461696c6572732063616e20706572666f726d20746869732060008201527f616374696f6e0000000000000000000000000000000000000000000000000000602082015250565b6000615770602683614f3e565b915061577b82615714565b604082019050919050565b6000602082019050818103600083015261579f81615763565b9050919050565b7f50726f6475637420646f6573206e6f7420657869737400000000000000000000600082015250565b60006157dc601683614f3e565b91506157e7826157a6565b602082019050919050565b6000602082019050818103600083015261580b816157cf565b9050919050565b7f4e487b7100000000000000000000000000000000000000000000000000000000600052603260045260246000fd5b7f50726f6475637420686173206265656e2072656c6561736564206f7220736f6c60008201527f6400000000000000000000000000000000000000000000000000000000000000602082015250565b600061589d602183614f3e565b91506158a882615841565b604082019050919050565b600060208201905081810360008301526158cc81615890565b9050919050565b7f4e487b7100000000000000000000000000000000000000000000000000000000600052601160045260246000fd5b600061590d82614b37565b91507fffffffffffffffffffffffffffffffffffffffffffffffffffffffffffffffff8214156159405761593f6158d3565b5b600182019050919050565b600061595682614b37565b915061596183614b37565b925082821015615974576159736158d3565b5b828203905092915050565b600061598a82614b37565b915061599583614b37565b9250827fffffffffffffffffffffffffffffffffffffffffffffffffffffffffffffffff038211156159ca576159c96158d3565b5b828201905092915050565b60006080820190506159ea6000830187614f88565b6159f76020830186614f2f565b615a046040830185614f2f565b615a116060830184614f88565b95945050505050565b7f4f6e6c79206d616e756661637475726572732063616e20706572666f726d207460008201527f68697320616374696f6e00000000000000000000000000000000000000000000602082015250565b6000615a76602a83614f3e565b9150615a8182615a1a565b604082019050919050565b60006020820190508181036000830152615aa581615a69565b9050919050565b7f4f6e6c79206d616e756661637475726572732063616e206164642070726f647560008201527f6374000000000000000000000000000000000000000000000000000000000000602082015250565b6000615b08602283614f3e565b9150615b1382615aac565b604082019050919050565b60006020820190508181036000830152615b3781615afb565b9050919050565b6000606082019050615b536000830186614f88565b615b606020830185614f2f565b615b6d6040830184614f88565b949350505050565b7f4f6e6c7920637573746f6d6572732063616e20706572666f726d20746869732060008201527f616374696f6e0000000000000000000000000000000000000000000000000000602082015250565b6000615bd1602683614f3e565b9150615bdc82615b75565b604082019050919050565b60006020820190508181036000830152615c0081615bc4565b9050919050565b7f50726f6475637420686173206e6f74206265656e2072656c6561736564206f7260008201527f20686173206265656e20616c726561647920736f6c6400000000000000000000602082015250565b6000615c63603683614f3e565b9150615c6e82615c07565b604082019050919050565b60006020820190508181036000830152615c9281615c56565b9050919050565b7f54686973206164647265737320697320616c726561647920726567697374657260008201527f6564206173206d616e7566616374757265720000000000000000000000000000602082015250565b6000615cf5603283614f3e565b9150615d0082615c99565b604082019050919050565b60006020820190508181036000830152615d2481615ce8565b9050919050565b7f4e487b7100000000000000000000000000000000000000000000000000000000600052603160045260246000fdfea26469706673582212209cbc7ff59bffa8a800840dbce7de7bf45d8a72433e0cb0c2bb7610666284b63d64736f6c634300080b0033",
  "immutableReferences": {},
  "source": "// SPDX-License-Identifier: MIT\r\npragma solidity >=0.5.0 <0.9.0;\r\n\r\ncontract DeTrace {\r\n    enum Role {\r\n        manufacturer,\r\n        retailer,\r\n        customer,\r\n        not_registered\r\n    }\r\n\r\n    enum Stage {\r\n        manufactured,\r\n        released,\r\n        sold\r\n    }\r\n\r\n    struct Product {\r\n        uint256 id;\r\n        string name;\r\n        uint256 price;\r\n        string ipfs_hash;\r\n        Stage stage;\r\n        address manufacturer;\r\n        uint256 total_retailers;\r\n        address customer;\r\n        address currentOwner;\r\n    }\r\n\r\n    struct Manufacturer {\r\n        address id;\r\n        string name;\r\n        uint256 total_products;\r\n    }\r\n\r\n    struct Retailer {\r\n        address id;\r\n        string name;\r\n        uint256 total_products;\r\n    }\r\n\r\n    struct Customer {\r\n        address id;\r\n        string name;\r\n        uint256 total_orders;\r\n    }\r\n\r\n    uint256 public total_products;\r\n    Product[] public products;\r\n    mapping(address => Manufacturer) public manufacturers;\r\n    mapping(address => Retailer) public retailers;\r\n    mapping(address => Customer) public customers;\r\n    mapping(uint256 => address[]) public Product_Retailers;\r\n\r\n    mapping(address => uint256[]) public manufacturer_inventory;\r\n    mapping(address => uint256[]) public retailer_inventory;\r\n    mapping(address => uint256[]) public customer_orders;\r\n\r\n    address[] address_array;\r\n\r\n    event DeTrace_deployed(string _message);\r\n    event Product_Added(\r\n        uint256 _productId,\r\n        address _manufacturerAddress,\r\n        uint256 _time\r\n    );\r\n    event Product_Released(\r\n        uint256 _productId,\r\n        address _manufacturerAddress,\r\n        address _retailerAddress,\r\n        uint256 _time\r\n    );\r\n    event Product_Sold(\r\n        uint256 _productId,\r\n        address _retailerAddress,\r\n        address _customerAddress,\r\n        uint256 _time\r\n    );\r\n\r\n    constructor() {\r\n        total_products = 0;\r\n        emit DeTrace_deployed(\"DeTrace has been deployed\");\r\n    }\r\n\r\n    modifier isManufacturer(address _manufacturerAddress) {\r\n        require(\r\n            manufacturers[_manufacturerAddress].id != address(0x0),\r\n            \"Only manufacturers can perform this action\"\r\n        );\r\n        _;\r\n    }\r\n\r\n    modifier isRetailer(address _retailerAddress) {\r\n        require(\r\n            retailers[_retailerAddress].id != address(0x0),\r\n            \"Only retailers can perform this action\"\r\n        );\r\n        _;\r\n    }\r\n\r\n    modifier isCustomer(address _customerAddress) {\r\n        require(\r\n            customers[_customerAddress].id != address(0x0),\r\n            \"Only customers can perform this action\"\r\n        );\r\n        _;\r\n    }\r\n\r\n    function removeElement(uint256 index, uint256[] storage array)\r\n        internal\r\n        returns (uint256[] storage)\r\n    {\r\n        for (uint256 i = index; i < array.length - 1; i++) {\r\n            array[i] = array[i + 1];\r\n        }\r\n        array.pop();\r\n        return array;\r\n    }\r\n\r\n    function getProducts() public view returns (Product[] memory) {\r\n        return products;\r\n    }\r\n\r\n    function addManufacturer(string memory _name)\r\n        public\r\n        returns (Manufacturer memory)\r\n    {\r\n        require(\r\n            bytes(manufacturers[msg.sender].name).length == 0,\r\n            \"This address is already registered as manufacturer\"\r\n        );\r\n\r\n        Manufacturer memory _manufacturer;\r\n        _manufacturer.id = msg.sender;\r\n        _manufacturer.name = _name;\r\n        _manufacturer.total_products = 0;\r\n\r\n        manufacturers[msg.sender] = _manufacturer;\r\n\r\n        return _manufacturer;\r\n    }\r\n\r\n    function addRetailer(string memory _name)\r\n        public\r\n        \r\n        returns (Retailer memory)\r\n    {\r\n        require(\r\n            bytes(retailers[msg.sender].name).length == 0,\r\n            \"This address is already registered as retailer\"\r\n        );\r\n\r\n        Retailer memory _retailer;\r\n        _retailer.id = msg.sender;\r\n        _retailer.name = _name;\r\n        _retailer.total_products = 0;\r\n\r\n        retailers[msg.sender] = _retailer;\r\n\r\n        return _retailer;\r\n    }\r\n\r\n    function addCustomer(string memory _name)\r\n        public\r\n        \r\n        returns (Customer memory)\r\n    {\r\n        require(\r\n            bytes(customers[msg.sender].name).length == 0,\r\n            \"This address is already registered as retailer\"\r\n        );\r\n\r\n        Customer memory _customer;\r\n        _customer.id = msg.sender;\r\n        _customer.name = _name;\r\n\r\n        customers[msg.sender] = _customer;\r\n\r\n        return _customer;\r\n    }\r\n\r\n    function addProduct(\r\n        string memory _name,\r\n        uint256 _price,\r\n        string memory _ipfs_hash,\r\n        uint256 _time\r\n    ) public  isManufacturer(msg.sender) returns (Product memory) {\r\n        require(\r\n            manufacturers[msg.sender].id != address(0),\r\n            \"Only manufacturers can add product\"\r\n        );\r\n\r\n        //get the manufacturer\r\n        Manufacturer memory _manufacturer = manufacturers[msg.sender];\r\n\r\n        //create the product\r\n        Product memory _product;\r\n        _product.id = total_products;\r\n        _product.name = _name;\r\n        _product.price = _price;\r\n        _product.ipfs_hash = _ipfs_hash;\r\n        _product.manufacturer = _manufacturer.id;\r\n        _product.stage = Stage.manufactured;\r\n        _product.total_retailers = 0;\r\n        _product.currentOwner = msg.sender;\r\n\r\n        //add the product to records\r\n        products.push(_product);\r\n        total_products += 1;\r\n\r\n        //add the product to the manufacturer inventory records\r\n        manufacturer_inventory[msg.sender].push(_product.id);\r\n        _manufacturer.total_products += 1;\r\n        manufacturers[msg.sender] = _manufacturer;\r\n\r\n        //Add into proper mappings\r\n        Product_Retailers[_product.id] = address_array;\r\n\r\n        emit Product_Added(_product.id, msg.sender, _time);\r\n\r\n        return _product;\r\n    }\r\n\r\n    function releaseProduct(uint256 _productId, uint256 _time)\r\n        public\r\n        \r\n        isRetailer(msg.sender)\r\n        returns (Product memory)\r\n    {\r\n        require(_productId < total_products, \"Product does not exist\");\r\n\r\n        //Get the product\r\n        Product memory _product = products[_productId];\r\n\r\n        //check if the product has already been released or manufactured\r\n        require(\r\n            _product.stage == Stage.manufactured,\r\n            \"Product has been released or sold\"\r\n        );\r\n\r\n        //Shift ownership from manufacturer to retailer\r\n        Product_Retailers[_productId].push(msg.sender);\r\n        _product.total_retailers++;\r\n        _product.stage = Stage.released;\r\n        _product.currentOwner = msg.sender;\r\n\r\n        //Remove the element from the inventory of manufacturer and update count\r\n        Manufacturer memory _manufacturer = manufacturers[\r\n            _product.manufacturer\r\n        ];\r\n        for (uint256 i = 0; i < _manufacturer.total_products; i++) {\r\n            if (\r\n                manufacturer_inventory[_product.manufacturer][i] == _productId\r\n            ) {\r\n                manufacturer_inventory[_product.manufacturer] = removeElement(\r\n                    i,\r\n                    manufacturer_inventory[_product.manufacturer]\r\n                );\r\n                // delete manufacturer_inventory[_product.manufacturer][i];\r\n                break;\r\n            }\r\n        }\r\n        _manufacturer.total_products -= 1;\r\n        manufacturers[_product.manufacturer] = _manufacturer;\r\n\r\n        //Add the product to retailer's inventory and update count\r\n        retailer_inventory[msg.sender].push(_product.id);\r\n        Retailer memory _retailer = retailers[msg.sender];\r\n        _retailer.total_products += 1;\r\n        retailers[msg.sender] = _retailer;\r\n\r\n        //save the updated product details\r\n        products[_productId] = _product;\r\n\r\n        emit Product_Released(\r\n            _productId,\r\n            _product.manufacturer,\r\n            msg.sender,\r\n            _time\r\n        );\r\n\r\n        return _product;\r\n    }\r\n\r\n    function buyProduct(uint256 _productId, uint256 _time)\r\n        public\r\n        \r\n        isCustomer(msg.sender)\r\n        returns (Product memory)\r\n    {\r\n        require(_productId < total_products, \"Product does not exist\");\r\n\r\n        //Get the product\r\n        Product memory _product = products[_productId];\r\n\r\n        //check if the product has already been released or manufactured\r\n        require(\r\n            _product.stage == Stage.released,\r\n            \"Product has not been released or has been already sold\"\r\n        );\r\n\r\n        //Get the details of the retailer who is selling\r\n        address _retailerId = Product_Retailers[_product.id][\r\n            _product.total_retailers - 1\r\n        ];\r\n        Retailer memory _retailer = retailers[_retailerId];\r\n\r\n        //Get the details of the customer\r\n        Customer memory _customer = customers[msg.sender];\r\n\r\n        //Shift ownership from retailer to customer\r\n        _product.stage = Stage.sold;\r\n        _product.customer = _customer.id;\r\n        _product.currentOwner = msg.sender;\r\n\r\n        //Remove the element from the inventory of retailer and update count\r\n        address _current_retailer_address = Product_Retailers[_productId][\r\n            Product_Retailers[_productId].length - 1\r\n        ];\r\n        Retailer memory _current_retailer = retailers[\r\n            _current_retailer_address\r\n        ];\r\n        for (uint256 i = 0; i < _current_retailer.total_products; i++) {\r\n            if (\r\n                retailer_inventory[_current_retailer_address][i] == _productId\r\n            ) {\r\n                retailer_inventory[_current_retailer_address] = removeElement(\r\n                    i,\r\n                    retailer_inventory[_current_retailer_address]\r\n                );\r\n                // delete retailer_inventory[_current_retailer_address][i];\r\n                break;\r\n            }\r\n        }\r\n        _current_retailer.total_products -= 1;\r\n        retailers[_current_retailer_address] = _current_retailer;\r\n\r\n        //Add the product to customer's orders and update count\r\n        customer_orders[msg.sender].push(_product.id);\r\n        _customer.total_orders += 1;\r\n        customers[msg.sender] = _customer;\r\n\r\n        //save the updated product details\r\n        products[_productId] = _product;\r\n\r\n        emit Product_Sold(_productId, _retailer.id, msg.sender, _time);\r\n\r\n        return _product;\r\n    }\r\n\r\n    function getManufacturerDetails(address _manufacturerId)\r\n        public\r\n        view\r\n        returns (Manufacturer memory)\r\n    {\r\n        Manufacturer memory _manufacturer = manufacturers[_manufacturerId];\r\n        return _manufacturer;\r\n    }\r\n\r\n    function getManufacturerInventory(address _manufacturerId)\r\n        public\r\n        view\r\n        returns (uint256[] memory)\r\n    {\r\n        uint256[] memory _product_ids = manufacturer_inventory[_manufacturerId];\r\n        return _product_ids;\r\n    }\r\n\r\n    function getRetailerDetails(address _retailerId)\r\n        public\r\n        view\r\n        returns (Retailer memory)\r\n    {\r\n        Retailer memory _retailer = retailers[_retailerId];\r\n        return _retailer;\r\n    }\r\n\r\n    function getRetailerInventory(address _retailerId)\r\n        public\r\n        view\r\n        returns (uint256[] memory)\r\n    {\r\n        uint256[] memory _product_ids = retailer_inventory[_retailerId];\r\n        return _product_ids;\r\n    }\r\n\r\n    function getCustomerDetails(address _customerId)\r\n        public\r\n        view\r\n        returns (Customer memory)\r\n    {\r\n        Customer memory _customer = customers[_customerId];\r\n        return _customer;\r\n    }\r\n\r\n    function getCustomerOrders(address _customerId)\r\n        public\r\n        view\r\n        returns (uint256[] memory)\r\n    {\r\n        uint256[] memory _product_ids = customer_orders[_customerId];\r\n        return _product_ids;\r\n    }\r\n\r\n    function getProductDetails(uint256 _productId)\r\n        public\r\n        view\r\n        returns (\r\n            Product memory,\r\n            Retailer[] memory,\r\n            Manufacturer memory,\r\n            Customer memory\r\n        )\r\n    {\r\n        //Get the product\r\n        Product memory _product = products[_productId];\r\n\r\n        //Get all the retailers addresses\r\n        address[] memory _retailer_addresses = Product_Retailers[_productId];\r\n\r\n        //Initialize an empty reailters array\r\n        Retailer[] memory _retailers = new Retailer[](_product.total_retailers);\r\n\r\n        //Get the manufacturer\r\n        Manufacturer memory _manufacturer = getManufacturerDetails(\r\n            _product.manufacturer\r\n        );\r\n\r\n        //Get the customer\r\n        Customer memory _customer = getCustomerDetails(_product.customer);\r\n\r\n        //Push all the retailers in the _retailers array\r\n        for (uint256 i = 0; i < _retailer_addresses.length; i++) {\r\n            _retailers[i] = getRetailerDetails(_retailer_addresses[i]);\r\n        }\r\n        return (_product, _retailers, _manufacturer, _customer);\r\n    }\r\n\r\n    function getCurrentStatus(uint256 _productId)\r\n        public\r\n        view\r\n        returns (\r\n            Stage,\r\n            address,\r\n            Manufacturer memory,\r\n            Customer memory,\r\n            Retailer memory\r\n        )\r\n    {\r\n        //Initilize an empty address for owner\r\n        address _owner_address;\r\n\r\n        //Get product details\r\n        Product memory _product = products[_productId];\r\n\r\n        //Get product stage\r\n        Stage _stage = _product.stage;\r\n\r\n        //Instantiate each user\r\n        Manufacturer memory _manufacturer;\r\n        Customer memory _customer;\r\n        Retailer memory _retailer;\r\n\r\n        //Check for each stage\r\n        if (_stage == Stage.manufactured) {\r\n            _owner_address = _product.manufacturer;\r\n            _manufacturer = getManufacturerDetails(_owner_address);\r\n        } else if (_stage == Stage.sold) {\r\n            _owner_address = _product.customer;\r\n            _customer = getCustomerDetails(_owner_address);\r\n        } else {\r\n            _owner_address = Product_Retailers[_productId][\r\n                _product.total_retailers - 1\r\n            ];\r\n            _retailer = getRetailerDetails(_owner_address);\r\n        }\r\n        return (_stage, _owner_address, _manufacturer, _customer, _retailer);\r\n    }\r\n\r\n    function getUserType(address _user) public view returns (Role) {\r\n        if (manufacturers[_user].id != address(0x0)) return Role.manufacturer;\r\n\r\n        if (retailers[_user].id != address(0x0)) return Role.retailer;\r\n\r\n        if (customers[_user].id != address(0x0)) return Role.customer;\r\n\r\n        return Role.not_registered;\r\n    }\r\n}\r\n",
  "sourcePath": "C:\\Users\\Jonathan Duarte\\OneDrive\\Desktop\\Demo\\DeTrace\\contracts\\contracts\\DeTrace.sol",
  "compiler": {
    "name": "solc",
    "version": "0.8.11+commit.d7f03943.Emscripten.clang"
  },
  "schemaVersion": "3.4.10",
  "updatedAt": "2023-02-12T03:16:52.330Z",
  "networkType": "ethereum",
  "devdoc": {
    "kind": "dev",
    "methods": {},
    "version": 1
  },
  "userdoc": {
    "kind": "user",
    "methods": {},
    "version": 1
  }
}